:100000000C9434000C9451000C9451000C94510049
:100010000C9451000C9451000C9451000C9451001C
:100020000C9451000C9451000C9451000C9451000C
:100030000C9451000C9455140C9451000C945100E4
:100040000C9451000C9451000C9451000C945100EC
:100050000C9451000C9451000C9451000C945100DC
:100060000C9451000C94510011241FBECFEFD8E026
:10007000DEBFCDBF11E0A0E0B1E0ECEBF5E302C0E4
:1000800005900D92AA36B107D9F711E0AAE6B1E0C2
:1000900001C01D92AF36B107E1F70E94DB0F0C944F
:1000A000DC1A0C9400000F931F93DF93CF93CDB70E
:1000B000DEB7C25DD0400FB6F894DEBF0FBECDBF35
:1000C00087E290E027E230E0F90120812160FC0125
:1000D000208387E290E027E230E0F901208122606E
:1000E000FC01208387E290E027E230E0F9012081E3
:1000F0002460FC01208387E290E027E230E0F901F0
:1001000020812860FC01208387E290E027E230E034
:10011000F90120812061FC01208387E290E027E241
:1001200030E0F90120812062FC01208380E090E032
:10013000A8ECB2E489839A83AB83BC8369817A811A
:100140008B819C8120E030E04AE755E40E946416F0
:10015000DC01CB018D839E83AF83B88711E06D8175
:100160007E818F81988520E030E040E85FE30E9447
:100170006C1888230CF010E0112329F081E090E046
:100180009A87898746C011E06D817E818F8198852D
:1001900020E03FEF4FE757E40E940C1818160CF0D0
:1001A00010E0112361F169817A818B819C8120E0CB
:1001B00030E040E251E40E946416DC01CB01BC0156
:1001C000CD010E949014DC01CB019A87898712C06F
:1001D00080E991E09C878B878B859C858C01C80189
:1001E0000197F1F78C011C870B8789859A85019708
:1001F0009A87898789859A85009751F717C06D81FD
:100200007E818F8198850E949014DC01CB019A87B2
:10021000898789859A859E878D878D859E858C01A6
:10022000F8013197F1F78F011E870D8788E290E082
:1002300028E230E0F90120812F7DFC01208388E253
:1002400090E028E230E0F90120812F7EFC0120833C
:1002500080E30E94C10C80E090E0A0E2B1E48F87CF
:10026000988BA98BBA8B6F85788989899A8920E0C8
:1002700030E04AE755E40E946416DC01CB018B8B29
:100280009C8BAD8BBE8B11E06B897C898D899E899F
:1002900020E030E040E85FE30E946C1888230CF017
:1002A00010E0112329F081E090E0988F8F8B46C0F9
:1002B00011E06B897C898D899E8920E03FEF4FE7B3
:1002C00057E40E940C1818160CF010E0112361F18D
:1002D0006F85788989899A8920E030E040E251E48D
:1002E0000E946416DC01CB01BC01CD010E94901478
:1002F000DC01CB01988F8F8B12C080E991E09A8F3F
:10030000898F898D9A8D8C01C8010197F1F78C0135
:100310001A8F098F8F89988D0197988F8F8B8F896E
:10032000988D009751F717C06B897C898D899E89BC
:100330000E949014DC01CB01988F8F8B8F89988D50
:100340009C8F8B8F8B8D9C8D8C01F8013197F1F7F1
:100350008F011C8F0B8F80E30E94C10C80E090E026
:10036000A8E4B3E48D8F9E8FAF8FB8A36D8D7E8D83
:100370008F8D98A12BEA3AEA4AEA50E40E9464166B
:10038000DC01CB0189A39AA3ABA3BCA311E069A1B3
:100390007AA18BA19CA120E030E040E85FE30E94BD
:1003A0006C1888230CF010E0112319F081E08DA364
:1003B000A3C011E069A17AA18BA19CA120E030E04B
:1003C0004FE753E40E940C1818160CF010E01123AC
:1003D00009F489C06D8D7E8D8F8D98A120E030E06D
:1003E0004AE754E40E945E17DC01CB018EA39FA371
:1003F000A8A7B9A76EA17FA188A599A520E030E0A4
:100400004AE755E40E946416DC01CB018AA79BA74A
:10041000ACA7BDA711E06AA57BA58CA59DA520E092
:1004200030E040E85FE30E946C1888230CF010E095
:10043000112329F081E090E09FA78EA746C011E02C
:100440006AA57BA58CA59DA520E03FEF4FE757E46B
:100450000E940C1818160CF010E0112361F16EA127
:100460007FA188A599A520E030E040E251E40E94F8
:100470006416DC01CB01BC01CD010E949014DC01AB
:10048000CB019FA78EA712C080E991E099AB88AB02
:1004900088A999A98C01C8010197F1F78C0119ABC2
:1004A00008AB8EA59FA501979FA78EA78EA59FA598
:1004B000009751F728C06AA57BA58CA59DA50E9431
:1004C0009014DC01CB019FA78EA78EA59FA59BABA7
:1004D0008AAB8AA99BA98C01F8013197F1F78F01AA
:1004E0001BAB0AAB10C069A17AA18BA19CA10E9491
:1004F0009014DC01CB018DA38DA18CAB8CA9182F9E
:100500001A95F1F71CAB80E30E94C10C80E090E0EB
:10051000A8E4B3E48DAB9EABAFABB8AF6DA97EA939
:100520008FA998AD2BEA3AEA4AEA50E40E94641691
:10053000DC01CB0189AF9AAFABAFBCAF11E069ADC5
:100540007AAD8BAD9CAD20E030E040E85FE30E94E7
:100550006C1888230CF010E0112319F081E08DAFA6
:10056000F3C011E069AD7AAD8BAD9CAD20E030E019
:100570004FE753E40E940C1818160CF010E01123FA
:1005800009F4D9C06DA97EA98FA998AD20E030E00B
:100590004AE754E40E945E17DC01CB019E01225C15
:1005A0003F4FF90180839183A283B3838E010E5B59
:1005B0001F4FCE01CE96FC016081718182819381B3
:1005C00020E030E04AE755E40E946416DC01CB01EC
:1005D000F80180839183A283B383CE018E5B9F4F0A
:1005E00011E0FC01608171818281938120E030E023
:1005F00040E85FE30E946C1888230CF010E01123A0
:1006000049F0CE018A5B9F4F21E030E0FC0131834D
:10061000208373C0CE018E5B9F4F11E0FC0160818F
:1006200071818281938120E03FEF4FE757E40E9480
:100630000C1818160CF010E0112309F44CC0CE0170
:10064000CE96FC01608171818281938120E030E04F
:1006500040E251E40E946416DC01CB018E010A5B8A
:100660001F4FBC01CD010E949014DC01CB01F801A9
:100670009183808327C0CE01885B9F4F20E931E0C2
:10068000FC0131832083CE01885B9F4FFC01808178
:1006900091818C01C8010197F1F78C01CE01885B33
:1006A0009F4FFC0111830083CE018A5B9F4F9E0107
:1006B0002A5B3F4FF9012081318121503040FC01FC
:1006C00031832083CE018A5B9F4FFC018081918121
:1006D000009789F64CC08E010A5B1F4FCE018E5BDE
:1006E0009F4FFC0160817181828193810E949014EF
:1006F000DC01CB01F80191838083CE01865B9F4FA3
:100700009E012A5B3F4FF90120813181FC01318339
:100710002083CE01865B9F4FFC01808191818C01FB
:10072000C8010197F1F78C01CE01865B9F4FFC0158
:10073000118300831CC069AD7AAD8BAD9CAD0E9466
:100740009014DC01CB018DAFCE01845B9F4F2DADAA
:10075000FC012083CE01845B9F4FFC018081182F18
:100760001A95F1F7CE01845B9F4FFC01108388E25C
:100770000E94C10C9E01235B3F4F80E090E0A0EA05
:10078000B2E4F90180839183A283B3838E010F5A6F
:100790001F4FCE01835B9F4FFC016081718182817D
:1007A00093812BEA3AEA4AEA50E40E946416DC019B
:1007B000CB01F80180839183A283B383CE018F5A4A
:1007C0009F4F11E0FC01608171818281938120E063
:1007D00030E040E85FE30E946C1888230CF010E0E2
:1007E000112339F0CE018B5A9F4F21E0FC01208369
:1007F00005C1CE018F5A9F4F11E0FC0160817181CC
:100800008281938120E030E04FE753E40E940C188E
:1008100018160CF010E0112309F4DFC0CE01835B41
:100820009F4FFC01608171818281938120E030E0E3
:100830004AE754E40E945E17DC01CB019E012A5A6C
:100840003F4FF90180839183A283B3838E01065ABF
:100850001F4FCE018A5A9F4FFC01608171818281B6
:10086000938120E030E04AE755E40E946416DC0101
:10087000CB01F80180839183A283B383CE01865A92
:100880009F4F11E0FC01608171818281938120E0A2
:1008900030E040E85FE30E946C1888230CF010E021
:1008A000112349F0CE01825A9F4F21E030E0FC0134
:1008B0003183208374C0CE01865A9F4F11E0FC0122
:1008C000608171818281938120E03FEF4FE757E49F
:1008D0000E940C1818160CF010E0112309F44DC0FA
:1008E000CE018A5A9F4FFC01608171818281938180
:1008F00020E030E040E251E40E946416DC01CB01CC
:100900008E01025A1F4FBC01CD010E949014DC01E0
:10091000CB01F8019183808327C0CE01805A9F4F7D
:1009200020E931E0FC0131832083CE01805A9F4FC2
:10093000FC01808191818C01C8010197F1F78C0144
:10094000CE01805A9F4FFC0111830083CE01825A51
:100950009F4F9E01225A3F4FF90120813181215042
:100960003040FC0131832083CE01825A9F4FFC012D
:1009700080819181009789F658C08E01025A1F4FDD
:10098000CE01865A9F4FFC016081718182819381E3
:100990000E949014DC01CB01F80191838083CE0189
:1009A0008E599F4F9E01225A3F4FF901208131817C
:1009B000FC0131832083CE018E599F4FFC01808141
:1009C00091818C01C8010197F1F78C01CE018E59FC
:1009D0009F4FFC011183008328C08E010B5A1F4FCB
:1009E000CE018F5A9F4FFC0160817181828193817A
:1009F0000E949014DC01CB01F8018083CE018C5958
:100A00009F4F9E012B5A3F4FF9012081FC0120830B
:100A1000CE018C599F4FFC018081182F1A95F1F758
:100A2000CE018C599F4FFC01108388E20E949D0CDF
:100A30009E012B593F4F80E090E0A0EAB2E4F9011B
:100A400080839183A283B3838E0107591F4FCE0108
:100A50008B599F4FFC0160817181828193812BEAC8
:100A60003AEA4AEA50E40E946416DC01CB01F8013C
:100A700080839183A283B383CE0187599F4F11E076
:100A8000FC01608171818281938120E030E040E847
:100A90005FE30E946C1888230CF010E0112339F0FA
:100AA000CE0183599F4F21E0FC01208305C1CE0177
:100AB00087599F4F11E0FC01608171818281938190
:100AC00020E030E04FE753E40E940C1818160CF0B9
:100AD00010E0112309F4DFC0CE018B599F4FFC01B8
:100AE000608171818281938120E030E04AE754E4A3
:100AF0000E945E17DC01CB019E0122593F4FF90194
:100B000080839183A283B3838E010E581F4FCE0141
:100B100082599F4FFC01608171818281938120E025
:100B200030E04AE755E40E946416DC01CB01F8018D
:100B300080839183A283B383CE018E589F4F11E0AF
:100B4000FC01608171818281938120E030E040E886
:100B50005FE30E946C1888230CF010E0112349F029
:100B6000CE018A589F4F21E030E0FC013183208381
:100B700074C0CE018E589F4F11E0FC0160817181DD
:100B80008281938120E03FEF4FE757E40E940C18E9
:100B900018160CF010E0112309F44DC0CE01825953
:100BA0009F4FFC01608171818281938120E030E060
:100BB00040E251E40E946416DC01CB018E010A5828
:100BC0001F4FBC01CD010E949014DC01CB01F80144
:100BD0009183808327C0CE0188589F4F20E931E060
:100BE000FC0131832083CE0188589F4FFC01808116
:100BF00091818C01C8010197F1F78C01CE018858D1
:100C00009F4FFC0111830083CE018A589F4F9E01A4
:100C10002A583F4FF9012081318121503040FC0199
:100C200031832083CE018A589F4FFC0180819181BE
:100C3000009789F658C08E010A581F4FCE018E5872
:100C40009F4FFC0160817181828193810E94901489
:100C5000DC01CB01F80191838083CE0186589F4F40
:100C60009E012A583F4FF90120813181FC013183D7
:100C70002083CE0186589F4FFC01808191818C0199
:100C8000C8010197F1F78C01CE0186589F4FFC01F6
:100C90001183008328C08E0103591F4FCE0187594D
:100CA0009F4FFC0160817181828193810E94901429
:100CB000DC01CB01F8018083CE0184589F4F9E0157
:100CC00023593F4FF9012081FC012083CE01845834
:100CD0009F4FFC018081182F1A95F1F7CE0184589F
:100CE0009F4FFC01108388E00E949D0C9E012358B9
:100CF0003F4F80E090E0A0EAB2E4F9018083918365
:100D0000A283B3838E010F571F4FCE0183589F4F8D
:100D1000FC0160817181828193812BEA3AEA4AEA7F
:100D200050E40E946416DC01CB01F80180839183BA
:100D3000A283B383CE018F579F4F11E0FC016081E6
:100D400071818281938120E030E040E85FE30E947E
:100D50006C1888230CF010E0112339F0CE018B576A
:100D60009F4F21E0FC01208305C1CE018F579F4F8B
:100D700011E0FC01608171818281938120E030E08B
:100D80004FE753E40E940C1818160CF010E01123E2
:100D900009F4DFC0CE0183589F4FFC01608171814F
:100DA0008281938120E030E04AE754E40E945E179C
:100DB000DC01CB019E012A573F4FF90180839183CB
:100DC000A283B3838E0106571F4FCE018A579F4FD0
:100DD000FC01608171818281938120E030E04AE7EB
:100DE00055E40E946416DC01CB01F80180839183F5
:100DF000A283B383CE0186579F4F11E0FC0160812F
:100E000071818281938120E030E040E85FE30E94BD
:100E10006C1888230CF010E0112349F0CE018257A2
:100E20009F4F21E030E0FC013183208374C0CE016C
:100E300086579F4F11E0FC0160817181828193810F
:100E400020E03FEF4FE757E40E940C1818160CF013
:100E500010E0112309F44DC0CE018A579F4FFC01C9
:100E6000608171818281938120E030E040E251E431
:100E70000E946416DC01CB018E0102571F4FBC019A
:100E8000CD010E949014DC01CB01F8019183808395
:100E900027C0CE0180579F4F20E931E0FC0131830C
:100EA0002083CE0180579F4FFC01808191818C016E
:100EB000C8010197F1F78C01CE0180579F4FFC01CB
:100EC00011830083CE0182579F4F9E0122573F4FCF
:100ED000F9012081318121503040FC013183208390
:100EE000CE0182579F4FFC0180819181009789F646
:100EF00058C08E0102571F4FCE0186579F4FFC01ED
:100F000060817181828193810E949014DC01CB0108
:100F1000F80191838083CE018E569F4F9E01225708
:100F20003F4FF90120813181FC0131832083CE01C3
:100F30008E569F4FFC01808191818C01C8010197E1
:100F4000F1F78C01CE018E569F4FFC011183008377
:100F500028C08E010B571F4FCE018F579F4FFC01AA
:100F600060817181828193810E949014DC01CB01A8
:100F7000F8018083CE018C569F4F9E012B573F4F27
:100F8000F9012081FC012083CE018C569F4FFC018A
:100F90008081182F1A95F1F7CE018C569F4FFC01D6
:100FA000108381E00E949D0C9E012B563F4F80E0F4
:100FB00090E0A0E8B0E4F90180839183A283B38339
:100FC0008E0107561F4FCE018B569F4FFC0160814B
:100FD00071818281938120E030E04AE755E40E94EC
:100FE0006416DC01CB01F80180839183A283B38373
:100FF000CE0187569F4F11E0FC0160817181828193
:10100000938120E030E040E85FE30E946C18882381
:101010000CF010E0112349F0CE0183569F4F21E0E0
:1010200030E0FC013183208374C0CE0187569F4F8E
:1010300011E0FC01608171818281938120E03FEFAA
:101040004FE757E40E940C1818160CF010E011231B
:1010500009F44DC0CE018B569F4FFC016081718118
:101060008281938120E030E040E251E40E946416E6
:10107000DC01CB018E0103561F4FBC01CD010E9444
:101080009014DC01CB01F8019183808327C0CE014D
:1010900081569F4F20E931E0FC0131832083CE014E
:1010A00081569F4FFC01808191818C01C80101977D
:1010B000F1F78C01CE0181569F4FFC011183008313
:1010C000CE0183569F4F9E0123563F4FF901208149
:1010D000318121503040FC0131832083CE01835681
:1010E0009F4FFC0180819181009789F62FC08E016E
:1010F00003561F4FCE0187569F4FFC0160817181BF
:10110000828193810E949014DC01CB01F8019183CC
:101110008083CE018F559F4F9E0123563F4FF9018B
:1011200020813181FC0131832083CE018F559F4F77
:10113000FC01808191818C01C8010197F1F78C013C
:10114000CE018F559F4FFC011183008386E00E94E2
:101150009D0C9E012D553F4F80E090E0A0EAB2E447
:10116000F90180839183A283B3838E0109551F4FB8
:10117000CE018D559F4FFC016081718182819381E9
:101180002BEA3AEA4AEA50E40E946416DC01CB01F9
:10119000F80180839183A283B383CE0189559F4F49
:1011A00011E0FC01608171818281938120E030E057
:1011B00040E85FE30E946C1888230CF010E01123D4
:1011C00039F0CE0185559F4F21E0FC01208305C1F8
:1011D000CE0189559F4F11E0FC01608171818281B0
:1011E000938120E030E04FE753E40E940C1818167A
:1011F0000CF010E0112309F4DFC0CE018D559F4F94
:10120000FC01608171818281938120E030E04AE7B6
:1012100054E40E945E17DC01CB019E0124553F4F30
:10122000F90180839183A283B3838E0100551F4F00
:10123000CE0184559F4FFC01608171818281938131
:1012400020E030E04AE755E40E946416DC01CB015F
:10125000F80180839183A283B383CE0180559F4F91
:1012600011E0FC01608171818281938120E030E096
:1012700040E85FE30E946C1888230CF010E0112313
:1012800049F0CE018C549F4F21E030E0FC013183C6
:10129000208374C0CE0180559F4F11E0FC01608116
:1012A00071818281938120E03FEF4FE757E40E94F4
:1012B0000C1818160CF010E0112309F44DC0CE01E3
:1012C00084559F4FFC01608171818281938120E070
:1012D00030E040E251E40E946416DC01CB018E0153
:1012E0000C541F4FBC01CD010E949014DC01CB01B6
:1012F000F8019183808327C0CE018A549F4F20E953
:1013000031E0FC0131832083CE018A549F4FFC01E0
:10131000808191818C01C8010197F1F78C01CE0188
:101320008A549F4FFC0111830083CE018C549F4F40
:101330009E012C543F4FF9012081318121503040D2
:10134000FC0131832083CE018C549F4FFC018081AE
:101350009181009789F658C08E010C541F4FCE0121
:1013600080559F4FFC0160817181828193810E9431
:101370009014DC01CB01F80191838083CE01885465
:101380009F4F9E012C543F4FF90120813181FC0178
:1013900031832083CE0188549F4FFC01808191814D
:1013A0008C01C8010197F1F78C01CE0188549F4F41
:1013B000FC011183008328C08E0105551F4FCE010B
:1013C00089559F4FFC0160817181828193810E94C8
:1013D0009014DC01CB01F8018083CE0186549F4F2D
:1013E0009E0125553F4FF9012081FC012083CE014C
:1013F00086549F4FFC018081182F1A95F1F7CE017A
:1014000086549F4FFC0110838CE00E949D0C9E012E
:1014100025543F4F80E090E0A0EAB2E4F9018083D8
:101420009183A283B3838E0101541F4FCE01855453
:101430009F4FFC0160817181828193812BEA3AEA9E
:101440004AEA50E40E946416DC01CB01F801808373
:101450009183A283B383CE0181549F4F11E0FC019D
:10146000608171818281938120E030E040E85FE318
:101470000E946C1888230CF010E0112339F0CE0183
:101480008D539F4F21E0FC01208305C1CE01815483
:101490009F4F11E0FC01608171818281938120E086
:1014A00030E04FE753E40E940C1818160CF010E0DF
:1014B000112309F4DFC0CE0185549F4FFC016081E8
:1014C00071818281938120E030E04AE754E40E94F8
:1014D0005E17DC01CB019E012C533F4FF901808345
:1014E0009183A283B3838E0108531F4FCE018C5387
:1014F0009F4FFC01608171818281938120E030E007
:101500004AE755E40E946416DC01CB01F8018083B0
:101510009183A283B383CE0188539F4F11E0FC01D6
:10152000608171818281938120E030E040E85FE357
:101530000E946C1888230CF010E0112349F0CE01B2
:1015400084539F4F21E030E0FC013183208374C03D
:10155000CE0188539F4F11E0FC016081718182812F
:10156000938120E03FEF4FE757E40E940C181816D4
:101570000CF010E0112309F44DC0CE018C539F4FA5
:10158000FC01608171818281938120E030E040E242
:1015900051E40E946416DC01CB018E0104531F4FFD
:1015A000BC01CD010E949014DC01CB01F8019183B4
:1015B000808327C0CE0182539F4F20E931E0FC0198
:1015C00031832083CE0182539F4FFC018081918122
:1015D0008C01C8010197F1F78C01CE0182539F4F16
:1015E000FC0111830083CE0184539F4F9E0124533D
:1015F0003F4FF9012081318121503040FC0131837E
:101600002083CE0184539F4FFC01808191810097FC
:1016100089F658C08E0104531F4FCE0188539F4F47
:10162000FC0160817181828193810E949014DC01B0
:10163000CB01F80191838083CE0180539F4F9E019F
:1016400024533F4FF90120813181FC0131832083F4
:10165000CE0180539F4FFC01808191818C01C80194
:101660000197F1F78C01CE0180539F4FFC0111834C
:10167000008328C08E010D531F4FCE0181549F4F10
:10168000FC0160817181828193810E949014DC0150
:10169000CB01F8018083CE018E529F4F9E012D53C6
:1016A0003F4FF9012081FC012083CE018E529F4FD4
:1016B000FC018081182F1A95F1F7CE018E529F4FB1
:1016C000FC011083CE52DF4F0FB6F894DEBF0FBE81
:1016D000CDBFCF91DF911F910F9108950F931F936D
:1016E000DF93CF93CDB7DEB76C970FB6F894DEBF1C
:1016F0000FBECDBF9C8F8B8F1A8E198EE4C0898D43
:101700009A8D2B8D3C8D820F931FFC0180810E944E
:10171000790C898D9A8D01969A8F898F80E090E05F
:10172000A0EAB2E489839A83AB83BC8369817A811E
:101730008B819C812BEA3AEA4AEA50E40E946416C3
:10174000DC01CB018D839E83AF83B88711E06D816F
:101750007E818F81988520E030E040E85FE30E9441
:101760006C1888230CF010E0112319F081E08987B0
:10177000A3C011E06D817E818F81988520E030E0EB
:101780004FE753E40E940C1818160CF010E01123D8
:1017900009F489C069817A818B819C8120E030E0E5
:1017A0004AE754E40E945E17DC01CB018A879B87DD
:1017B000AC87BD876A857B858C859D8520E030E080
:1017C0004AE755E40E946416DC01CB018E879F87AF
:1017D000A88BB98B11E06E857F858889998920E077
:1017E00030E040E85FE30E946C1888230CF010E0C2
:1017F000112329F081E090E09B8B8A8B46C011E099
:101800006E857F858889998920E03FEF4FE757E40F
:101810000E940C1818160CF010E0112361F16A8573
:101820007B858C859D8520E030E040E251E40E947C
:101830006416DC01CB01BC01CD010E949014DC01D7
:10184000CB019B8B8A8B12C080E991E09D8B8C8BA6
:101850008C899D898C01C8010197F1F78C011D8B42
:101860000C8B8A899B8901979B8B8A8B8A899B89A0
:10187000009751F728C06E857F85888999890E94D5
:101880009014DC01CB019B8B8A8B8A899B899F8B6F
:101890008E8B8E899F898C01F8013197F1F78F012A
:1018A0001F8B0E8B10C06D817E818F8198850E9469
:1018B0009014DC01CB0189878985888F888D182F4A
:1018C0001A95F1F7188F898D9A8D2B8D3C8D820F8B
:1018D000931FFC018081882309F011CF6C960FB60D
:1018E000F894DEBF0FBECDBFCF91DF911F910F9156
:1018F0000895DF93CF930F92CDB7DEB7898388E247
:1019000090E028E230E0F90120812062FC01208390
:1019100088E290E028E230E0F90120812F7EFC018E
:10192000208389810E94C10C89818295807F0E94D9
:10193000C10C0F90CF91DF910895DF93CF930F9259
:10194000CDB7DEB7898388E290E028E230E0F90184
:1019500020812F7DFC01208388E290E028E230E0A6
:10196000F90120812F7EFC01208389810E94C10C16
:1019700089818295807F0E94C10C0F90CF91DF9169
:1019800008950F931F93DF93CF93CDB7DEB7E19701
:101990000FB6F894DEBF0FBECDBF89AB88E290E0F2
:1019A00028E230E0F90120812E7FFC01208389A903
:1019B00088234CF488E290E028E230E0F9012081AD
:1019C0002160FC01208388E290E028E230E0F90108
:1019D00020812D7FFC01208389A9882F90E08074CD
:1019E0009070009749F088E290E028E230E0F90139
:1019F00020812260FC01208388E290E028E230E030
:101A0000F90120812B7FFC01208389A9882F90E098
:101A100080729070009749F088E290E028E230E010
:101A2000F90120812460FC01208388E290E028E213
:101A300030E0F9012081277FFC01208389A9882FCC
:101A400090E080719070009749F088E290E028E281
:101A500030E0F90120812860FC01208388E290E0D9
:101A600028E230E0F90120812061FC01208380E040
:101A700090E0A0E8BFE389839A83AB83BC8369814C
:101A80007A818B819C812BEA3AEA4AEA50E40E94EF
:101A90006416DC01CB018D839E83AF83B88711E090
:101AA0006D817E818F81988520E030E040E85FE3A2
:101AB0000E946C1888230CF010E0112319F081E0CB
:101AC0008987A3C011E06D817E818F81988520E098
:101AD00030E04FE753E40E940C1818160CF010E0A9
:101AE000112309F489C069817A818B819C8120E06E
:101AF00030E04AE754E40E945E17DC01CB018A879C
:101B00009B87AC87BD876A857B858C859D8520E01A
:101B100030E04AE755E40E946416DC01CB018E8771
:101B20009F87A88BB98B11E06E857F8588899989FD
:101B300020E030E040E85FE30E946C1888230CF05E
:101B400010E0112329F081E090E09B8B8A8B46C046
:101B500011E06E857F858889998920E03FEF4FE706
:101B600057E40E940C1818160CF010E0112361F1D4
:101B70006A857B858C859D8520E030E040E251E4DC
:101B80000E946416DC01CB01BC01CD010E949014BF
:101B9000DC01CB019B8B8A8B12C080E991E09D8B8D
:101BA0008C8B8C899D898C01C8010197F1F78C0180
:101BB0001D8B0C8B8A899B8901979B8B8A8B8A89C9
:101BC0009B89009751F728C06E857F858889998900
:101BD0000E949014DC01CB019B8B8A8B8A899B89A4
:101BE0009F8B8E8B8E899F898C01F8013197F1F73D
:101BF0008F011F8B0E8B10C06D817E818F81988528
:101C00000E949014DC01CB0189878985888F888D9B
:101C1000182F1A95F1F7188F88E290E028E230E04B
:101C2000F90120812F7EFC01208380E090E0A0E874
:101C3000BFE3898F9A8FAB8FBC8F698D7A8D8B8D27
:101C40009C8D2BEA3AEA4AEA50E40E946416DC01D1
:101C5000CB018D8F9E8FAF8FB8A311E06D8D7E8DE0
:101C60008F8D98A120E030E040E85FE30E946C187F
:101C700088230CF010E0112319F081E089A3A3C0A0
:101C800011E06D8D7E8D8F8D98A120E030E04FE7C3
:101C900053E40E940C1818160CF010E0112309F4FC
:101CA00089C0698D7A8D8B8D9C8D20E030E04AE76C
:101CB00054E40E945E17DC01CB018AA39BA3ACA372
:101CC000BDA36AA17BA18CA19DA120E030E04AE7E1
:101CD00055E40E946416DC01CB018EA39FA3A8A744
:101CE000B9A711E06EA17FA188A599A520E030E0F9
:101CF00040E85FE30E946C1888230CF010E0112389
:101D000029F081E090E09BA78AA746C011E06EA170
:101D10007FA188A599A520E03FEF4FE757E40E94F7
:101D20000C1818160CF010E0112361F16AA17BA1C8
:101D30008CA19DA120E030E040E251E40E946416B5
:101D4000DC01CB01BC01CD010E949014DC01CB0170
:101D50009BA78AA712C080E991E09DA78CA78CA5BC
:101D60009DA58C01C8010197F1F78C011DA70CA757
:101D70008AA59BA501979BA78AA78AA59BA50097E3
:101D800051F728C06EA17FA188A599A50E94901443
:101D9000DC01CB019BA78AA78AA59BA59FA78EA73D
:101DA0008EA59FA58C01F8013197F1F78F011FA730
:101DB0000EA710C06D8D7E8D8F8D98A10E949014FE
:101DC000DC01CB0189A389A188AB88A9182F1A95BA
:101DD000F1F718ABE1960FB6F894DEBF0FBECDBF9A
:101DE000CF91DF911F910F910895DF93CF9300D092
:101DF000CDB7DEB78BE290E02BE230E0F901208135
:101E00002F60FC0120831A824CC084E290E0FC0128
:101E1000808184E290E0FC0110828AE290E0FC0183
:101E200080818AE290E0FC01108284E290E024E26A
:101E300030E0F9012081622F2A81422F50E020E218
:101E400030E0042E02C0359527950A94E2F7262B40
:101E5000FC01208319821FC089E290E0FC0180818F
:101E6000282F30E08981482F50E088E090E0042E50
:101E700002C0959587950A94E2F7822393230097F1
:101E800039F48981982F990F990F8A81890F0EC093
:101E900089818F5F898389818430F0F28A818F5FA5
:101EA0008A838A81843008F4B0CF84E10F900F9048
:101EB000CF91DF910895DF93CF9300D000D0CDB7BD
:101EC000DEB79A8389837C836B838AE290E02AE27F
:101ED00030E0F90120812062FC01208384E490E05D
:101EE00023E2FC01208385E490E02DE0FC012083C7
:101EF00027E430E089819A8199230CF4CF96082E4B
:101F0000892F000C881F990B000C881F991FF9015D
:101F1000808328E430E087E490E0FC018081682F32
:101F200070E04B815C81649FC001659F900D749F40
:101F3000900D112444E650E0BA010E947E1AAB01D4
:101F4000CA01F90180830F900F900F900F90CF91ED
:101F5000DF910895DF93CF93CDB7DEB785E490E0AE
:101F600025E430E0F9012081287FFC012083CF9116
:101F7000DF910895DF93CF93CDB7DEB778948FE6E6
:101F800090E02FE630E0F90120812160FC01208300
:101F900081E890E021E830E0F90120812560FC0132
:101FA000208384E890E02AE23CEFFC013183208327
:101FB000CF91DF9108950F931F93DF93CF93CDB708
:101FC000DEB7C454D0400FB6F894DEBF0FBECDBF0D
:101FD000CE01C49621E531E041E1F90100802F5F97
:101FE0003F4FFC010082019641504423B1F70E940B
:101FF000530083E091E00E946E0B1A82198201C0A7
:1020000000000E94F50E8B838B818C3009F0DFC0BD
:1020100081E00E949D0C83E091E00E946E0B80E0C5
:1020200090E4ACE9B6E48C839D83AE83BF836C817E
:102030007D818E819F812BEA3AEA4AEA50E40E9430
:102040006416DC01CB0188879987AA87BB8711E0DA
:10205000688579858A859B8520E030E040E85FE3EC
:102060000E946C1888230CF010E0112319F081E015
:102070008C87A3C011E0688579858A859B8520E0DF
:1020800030E04FE753E40E940C1818160CF010E0F3
:10209000112309F489C06C817D818E819F8120E0AC
:1020A00030E04AE754E40E945E17DC01CB018D87E3
:1020B0009E87AF87B88B6D857E858F85988920E058
:1020C00030E04AE755E40E946416DC01CB01898BBD
:1020D0009A8BAB8BBC8B11E069897A898B899C893F
:1020E00020E030E040E85FE30E946C1888230CF0A9
:1020F00010E0112329F081E090E09E8B8D8B46C08B
:1021000011E069897A898B899C8920E03FEF4FE74C
:1021100057E40E940C1818160CF010E0112361F11E
:102120006D857E858F85988920E030E040E251E41E
:102130000E946416DC01CB01BC01CD010E94901409
:10214000DC01CB019E8B8D8B12C080E991E0988FD2
:102150008F8B8F89988D8C01C8010197F1F78C01C5
:10216000188F0F8B8D899E8901979E8B8D8B8D8902
:102170009E89009751F728C069897A898B899C8943
:102180000E949014DC01CB019E8B8D8B8D899E89E2
:102190009A8F898F898D9A8D8C01F8013197F1F78B
:1021A0008F011A8F098F10C0688579858A859B8574
:1021B0000E949014DC01CB018C878C858B8F8B8DDA
:1021C000182F1A95F1F71B8F1A8219821ACF8B815B
:1021D000843109F415CF8FA90E94790C8B81882F47
:1021E00090E09E012C5C3F4F820F931FFC012081E9
:1021F00089819A8184599E4FFC01208389819A812B
:1022000001969A83898389819A818330910521F48B
:102210000E94E2111A82198280E090E4ACE9B6E4EF
:102220008C8F9D8FAE8FBF8F6C8D7D8D8E8D9F8D92
:102230002BEA3AEA4AEA50E40E946416DC01CB0138
:1022400088A399A3AAA3BBA311E068A179A18AA13D
:102250009BA120E030E040E85FE30E946C188823F7
:102260000CF010E0112319F081E08CA3A3C011E061
:1022700068A179A18AA19BA120E030E04FE753E457
:102280000E940C1818160CF010E0112309F489C0F4
:102290006C8D7D8D8E8D9F8D20E030E04AE754E47B
:1022A0000E945E17DC01CB018DA39EA3AFA3B8A74C
:1022B0006DA17EA18FA198A520E030E04AE755E40A
:1022C0000E946416DC01CB0189A79AA7ABA7BCA723
:1022D00011E069A57AA58BA59CA520E030E040E837
:1022E0005FE30E946C1888230CF010E0112329F0A2
:1022F00081E090E09EA78DA746C011E069A57AA570
:102300008BA59CA520E03FEF4FE757E40E940C18F7
:1023100018160CF010E0112361F16DA17EA18FA1C0
:1023200098A520E030E040E251E40E946416DC0110
:10233000CB01BC01CD010E949014DC01CB019EA712
:102340008DA712C080E991E098AB8FA78FA598A9BF
:102350008C01C8010197F1F78C0118AB0FA78DA56F
:102360009EA501979EA78DA78DA59EA5009751F7C5
:1023700048CE69A57AA58BA59CA50E949014DC0186
:10238000CB019EA78DA78DA59EA59AAB89AB89A9E8
:102390009AA98C01F8013197F1F78F011AAB09ABBB
:1023A00030CE68A179A18AA19BA10E949014DC0182
:1023B000CB018CA38CA18BAB8BA9182F1A95F1F7AD
:1023C0001BAB1FCE0F931F93DF93CF93CDB7DEB719
:1023D000E4970FB6F894DEBF0FBECDBF81E00E9438
:1023E0009D0C81E090E09C838B831A82198215C03A
:1023F00089819A8184599E4FFC01208189819A812B
:1024000080509F4FFC018081281711F01C821B8295
:1024100089819A8101969A83898389819A818330FF
:10242000910534F38B819C81009709F426C10E94A9
:10243000BA0F84E290E024E230E0F90120812360C9
:10244000FC0120838AE290E02AE230E0F901208159
:102450002063FC01208385E290E025E230E0F90171
:1024600020812D73FC01208385E290E025E230E09D
:10247000F90120812160FC0120838BE290E02BE2B6
:1024800030E0F90120812061FC012083E6C08091C9
:102490006A0190916B01880F991F875E9E4FFC0126
:1024A0008081918162E370E00E945B0F80E090E4A4
:1024B000ACE1B6E48D839E83AF83B8876D817E8166
:1024C0008F8198852BEA3AEA4AEA50E40E94641622
:1024D000DC01CB0189879A87AB87BC8711E06985CE
:1024E0007A858B859C8520E030E040E85FE30E94A0
:1024F0006C1888230CF010E0112319F081E08D870F
:10250000A3C011E069857A858B859C8520E030E049
:102510004FE753E40E940C1818160CF010E011233A
:1025200009F489C06D817E818F81988520E030E03B
:102530004AE754E40E945E17DC01CB018E879F8737
:10254000A88BB98B6E857F858889998920E030E0DA
:102550004AE755E40E946416DC01CB018A8B9B8B11
:10256000AC8BBD8B11E06A897B898C899D8920E0C9
:1025700030E040E85FE30E946C1888230CF010E024
:10258000112329F081E090E09F8B8E8B46C011E0F3
:102590006A897B898C899D8920E03FEF4FE757E46A
:1025A0000E940C1818160CF010E0112361F16E85D2
:1025B0007F858889998920E030E040E251E40E94DB
:1025C0006416DC01CB01BC01CD010E949014DC013A
:1025D000CB019F8B8E8B12C080E991E0998F888F01
:1025E000888D998D8C01C8010197F1F78C01198FA5
:1025F000088F8E899F8901979F8B8E8B8E899F89EB
:10260000009751F728C06A897B898C899D890E942F
:102610009014DC01CB019F8B8E8B8E899F899B8FC1
:102620008A8F8A8D9B8D8C01F8013197F1F78F018C
:102630001B8F0A8F10C069857A858B859C850E94C7
:102640009014DC01CB018D878D858C8F8C8D182F9C
:102650001A95F1F71C8F0E94AA0F80914901909161
:102660004A019C012150304080916A0190916B0198
:102670002817390709F00BCF06C189E091E00E94C5
:102680006E0B80E090E4ACE1B6E48D8F9E8FAF8F4F
:10269000B8A36D8D7E8D8F8D98A12BEA3AEA4AEA18
:1026A00050E40E946416DC01CB0189A39AA3ABA37A
:1026B000BCA311E069A17AA18BA19CA120E030E02C
:1026C00040E85FE30E946C1888230CF010E01123AF
:1026D00019F081E08DA3A3C011E069A17AA18BA1BB
:1026E0009CA120E030E04FE753E40E940C1818163C
:1026F0000CF010E0112309F489C06D8D7E8D8F8D53
:1027000098A120E030E04AE754E40E945E17DC0123
:10271000CB018EA39FA3A8A7B9A76EA17FA188A56F
:1027200099A520E030E04AE755E40E946416DC01F8
:10273000CB018AA79BA7ACA7BDA711E06AA57BA583
:102740008CA59DA520E030E040E85FE30E946C1876
:1027500088230CF010E0112329F081E090E09FA77E
:102760008EA746C011E06AA57BA58CA59DA520E09B
:102770003FEF4FE757E40E940C1818160CF010E0DA
:10278000112361F16EA17FA188A599A520E030E019
:1027900040E251E40E946416DC01CB01BC01CD0192
:1027A0000E949014DC01CB019FA78EA712C080E984
:1027B00091E099AB88AB88A999A98C01C8010197D0
:1027C000F1F78C0119AB08AB8EA59FA501979FA7C8
:1027D0008EA78EA59FA5009751F728C06AA57BA557
:1027E0008CA59DA50E949014DC01CB019FA78EA70C
:1027F0008EA59FA59BAB8AAB8AA99BA98C01F801EA
:102800003197F1F78F011BAB0AAB10C069A17AA118
:102810008BA19CA10E949014DC01CB018DA38DA102
:102820008CAB8CA9182F1A95F1F71CAB84E290E0C1
:1028300024E230E0F90120812360FC0120838AE258
:1028400090E02AE230E0F90120812065FC0120833C
:1028500085E290E025E230E0F90120812E73FC0151
:10286000208385E290E025E230E0F90120812260BA
:10287000FC0120838BE290E02BE230E0F901208123
:102880002065FC01208381E00E949D0C83E091E0A3
:102890000E946E0BE4960FB6F894DEBF0FBECDBF5C
:1028A000CF91DF911F910F9108951F920F920FB654
:1028B0000F9211242F933F938F939F93EF93FF9346
:1028C000DF93CF93CDB7DEB784E890E02AE23CEF08
:1028D000FC013183208380916A0190916B01019604
:1028E00090936B0180936A0120916A0130916B0192
:1028F0008091490190914A012817390721F41092DB
:102900006B0110926A01CF91DF91FF91EF919F913E
:102910008F913F912F910F900FBE0F901F901895A0
:10292000EF92FF920F931F937B018C0120E030E028
:1029300040E05FE40E943C1887FD11C0C801B70168
:1029400020E030E040E05FE40E9433160E949C18D3
:102950009B01AC01205030404040504806C0C801A7
:10296000B7010E949C189B01AC01B901CA011F91DB
:102970000F91FF90EF900895A0E0B0E0E2ECF4E159
:102980000C94A91AFC01EA018081823008F438C154
:10299000DB019C91923008F430C1843059F49430BA
:1029A00009F02EC1918111968C911197981709F019
:1029B00021C126C1943009F420C19230B1F4823093
:1029C00009F01EC1CA01AF0128E0DA010D90AD0186
:1029D000DC010D92CD012150C1F7DB0111968C91E4
:1029E00011979181892389830AC1823009F405C135
:1029F000C280D380DB0112966D907C901397248166
:102A00003581468157811496ED90FD900D911C9172
:102A10001797C601861997095C0197FF04C0AA247D
:102A2000BB24A81AB90AB0E2AB16B1040CF061C01D
:102A3000181619066CF5370148010A2C04C0969443
:102A40008794779467940A94D2F781E090E0A0E0AD
:102A5000B0E00A2C04C0880F991FAA1FBB1F0A945C
:102A6000D2F70197A109B1098E219F21A023B1239B
:102A7000EE24FF248701E3940097A105B10519F422
:102A8000EE24FF248701E628F728082919293CC0ED
:102A90000097D1F1CA0CDB1C39014A010A2C04C091
:102AA00096948794779467940A94D2F781E090E0A3
:102AB000A0E0B0E00A2C04C0880F991FAA1FBB1F1A
:102AC0000A94D2F70197A109B10982239323A42381
:102AD000B52321E030E040E050E00097A105B105CA
:102AE00019F420E030E0A90126293729482959297D
:102AF0000BC06C147D0424F4EE24FF24870104C071
:102B0000630120E030E0A9018181FB0191818917F7
:102B100009F445C0882349F0D801C701821B930BF3
:102B2000A40BB50B9C01AD0104C02E193F09400B4D
:102B3000510B57FD04C01982DB82CA820BC081E0B1
:102B40008983DB82CA8250954095309521953F4F0D
:102B50004F4F5F4F2C833D834E835F830DC0880FA3
:102B6000991FAA1FBB1F8C839D83AE83BF838A815D
:102B70009B8101979B838A838C819D81AE81BF81DC
:102B80009C01AD0121503040404050402F3FEFEFBD
:102B90003E07EFEF4E07EFE35E0708F30BC08983B4
:102BA000DB82CA822E0D3F1D401F511F2C833D83A7
:102BB0004E835F8383E088832C813D814E815F81DA
:102BC00057FF1DC0DA01C90181709070A070B0700C
:102BD0005695479537952795822B932BA42BB52B8C
:102BE0008C839D83AE83BF838A819B8101969B8367
:102BF0008A8305C0E2E6F1E003C0FB0101C0FE01EB
:102C0000CF01CDB7DEB7EEE00C94C51AA0E2B0E07C
:102C1000ECE0F6E10C94B11A69837A838B839C8390
:102C20002D833E834F83588789E0E82EF12CEC0EEC
:102C3000FD1ECE010196B7010E94BC198E010F5EE8
:102C40001F4FCE010596B8010E94BC19C701B801FB
:102C5000AE01475E5F4F0E94BC140E94EE18A09622
:102C6000E6E00C94CD1AA0E2B0E0E9E3F6E10C94C2
:102C7000B11A69837A838B839C832D833E834F8330
:102C800058878E01075F1F4FCE010196B8010E9441
:102C9000BC1991E1E92EF12CEC0EFD1ECE0105963A
:102CA000B7010E94BC198A8991E089278A8BC801E3
:102CB000B701AE01475E5F4F0E94BC140E94EE1840
:102CC000A096E6E00C94CD1AA0E2B0E0EAE6F6E1C8
:102CD0000C94A51A69837A838B839C832D833E830E
:102CE0004F835887CE010196BE01675F7F4F0E94D8
:102CF000BC19CE010596BE016F5E7F4F0E94BC19C4
:102D00009985923078F089898230C0F0943019F436
:102D1000823041F4CBC0843019F4923079F4C6C0CB
:102D2000923051F481E02A859A89291709F480E0CC
:102D30008A87CE010996BCC0823051F481E02A8591
:102D40009A89291709F480E08A8BCE014196B0C098
:102D50006D847E848F849888ED88FE880F89188D15
:102D6000E0E2F0E080E090E0DC01AA24BB24650111
:102D700020E030E0A901B301617070706115710548
:102D8000D1F02E0D3F1D401F511F15012601280EA9
:102D9000391E4A1E5B1E81E090E0A0E0B0E02E15D7
:102DA0003F054007510718F080E090E0DC01820DFC
:102DB000931DA41DB51DAA0CBB1CCC1CDD1C17FF4C
:102DC00009C061E0262E312C412C512CA228B328B9
:102DD000C428D528319749F0EE0CFF1C001F111FA5
:102DE0009694879477946794C6CF6B897C89EB859A
:102DF000FC856E0F7F1F6E5F7F4F7C8F6B8F61E056
:102E0000EA857A89E71709F460E06A8F6B8D7C8D1B
:102E100010C0FC01E170F070309729F0569547958D
:102E2000379527955068B695A795979587956F5FC5
:102E30007F4FB7FDEECF0CC0880F991FAA1FBB1F95
:102E400057FD8160220F331F441F551F6150704092
:102E50008030E0E09E07E0E0AE07E0E4BE0760F30C
:102E60006B8F7C8F6FE7E62EF12C012D112DE82260
:102E7000F9220A231B2360E4E616F104010511057B
:102E800061F487FD0AC0211531054105510529F07E
:102E9000805C9F4FAF4FBF4F80788D8F9E8FAF8FDD
:102EA000B8A383E0898FCE01499602C082E691E003
:102EB0000E94EE18A096E2E10C94C11AA8E1B0E0DD
:102EC000E4E6F7E10C94AD1A69837A838B839C83E3
:102ED0002D833E834F8358878E01075F1F4FCE019E
:102EE0000196B8010E94BC1981E1E82EF12CEC0E8C
:102EF000FD1ECE010596B7010E94BC19998592303E
:102F000008F483C08989823008F47BC02A853A8915
:102F100023272A87943011F0923021F4981709F072
:102F20006CC071C0843039F41D861E861F86188AD5
:102F30001C861B866AC0823019F484E0898765C0CC
:102F40008B859C852B893C89821B930B9C878B8767
:102F50002D853E854F855889ED88FE880F89188D0F
:102F60002E153F054007510738F4220F331F441F29
:102F7000551F01979C878B876FE170E0A12CB12CC6
:102F8000C12CA0E4DA2E80E090E0DC012E153F0594
:102F90004007510740F08A299B29AC29BD292E19E9
:102FA0003F09400B510BD694C794B794A794220FB6
:102FB000331F441F551F6150704041F76FE7E62EE5
:102FC000F12C012D112DE822F9220A231B2360E4A4
:102FD000E616F1040105110561F487FD0AC021150B
:102FE00031054105510529F0805C9F4FAF4FBF4F20
:102FF00080788D879E87AF87B88B8E01075F1F4FC4
:1030000004C0870102C002E611E0C8010E94EE1868
:103010006896EAE00C94C91AA8E1B0E0E2E1F8E1B0
:103020000C94B11A69837A838B839C832D833E83AE
:103030004F8358878E01075F1F4FCE010196B8015D
:103040000E94BC1981E1E82EF12CEC0EFD1ECE0190
:103050000596B7010E94BC198985823040F08989A4
:10306000823028F0C801B7010E94251A01C08FEFF5
:103070006896E6E00C94CD1AA8E1B0E0E2E4F8E14D
:103080000C94B11A69837A838B839C832D833E834E
:103090004F8358878E01075F1F4FCE010196B801FD
:1030A0000E94BC1981E1E82EF12CEC0EFD1ECE0130
:1030B0000596B7010E94BC198985823040F0898944
:1030C000823028F0C801B7010E94251A01C08FEF95
:1030D0006896E6E00C94CD1AA8E1B0E0E2E7F8E1EA
:1030E0000C94B11A69837A838B839C832D833E83EE
:1030F0004F8358878E01075F1F4FCE010196B8019D
:103100000E94BC1981E1E82EF12CEC0EFD1ECE01CF
:103110000596B7010E94BC198985823040F08989E3
:10312000823028F0C801B7010E94251A01C081E051
:103130006896E6E00C94CD1AACE0B0E0E2EAF8E183
:103140000C94B51A69837A838B839C83CE01019694
:10315000BE016B5F7F4F0E94BC198D81823081F16F
:10316000823070F1843021F48E81882369F10AC0A5
:103170002F81388537FD24C06E812F3131053CF019
:10318000662311F120E030E040E050E821C08EE1FC
:1031900090E0821B930B29853A854B855C8504C0A2
:1031A00056954795379527958A95D2F7662381F0EE
:1031B00050954095309521953F4F4F4F5F4F08C038
:1031C00020E030E0A90104C02FEF3FEF4FEF5FE7B1
:1031D000B901CA012C96E2E00C94D11AEF92FF9249
:1031E0000F931F93CF93DF93FC0124813581468198
:1031F000578161818081823020F44061EFEFF0E0FF
:10320000A3C0843009F49BC0823009F492C0211518
:1032100031054105510509F48FC00280F381E02D8D
:103220008FEFE238F8070CF05AC0C2E8DFEFCE1B90
:10323000DF0BCA31D1056CF579018A010C2E04C06F
:1032400016950795F794E7940A94D2F781E090E0F9
:10325000A0E0B0E00C2E04C0880F991FAA1FBB1F6E
:103260000A94D2F70197A109B10982239323A423D9
:10327000B52321E030E040E050E00097A105B10522
:1032800019F420E030E0A9012E293F29402B512BD1
:1032900003C020E030E0A901DA01C9018F77907006
:1032A000A070B07080349105A105B10539F427FFF5
:1032B00009C0205C3F4F4F4F5F4F04C0215C3F4F20
:1032C0004F4F5F4FE1E0F0E0203080E0380780E0D2
:1032D000480780E4580728F5E0E0F0E022C0E03835
:1032E000F1056CF5E158FF4FDA01C9018F77907055
:1032F000A070B07080349105A105B10539F427FFA5
:1033000009C0205C3F4F4F4F5F4F04C0215C3F4FCF
:103310004F4F5F4F57FF05C05695479537952795F7
:10332000319687E056954795379527958A95D1F739
:103330000BC0E0E0F0E005C0E0E0F0E005C0EFEF3A
:10334000F0E020E030E0A9018E2F8795882787954F
:10335000942F9F77679566276795E695E22EA92FAC
:10336000A82BFE2FF62B622F732F8A2F9F2FCDB7FE
:10337000DEB7E6E00C94CD1ADC01FB012C9111962E
:103380003C91119712968C911297482F4F7750E0ED
:10339000982F991F9927991F13966C911397862F31
:1033A000880F892B90E0661F6627661F6183009750
:1033B00039F5211531054105510511F482E029C087
:1033C00082E89FEF9383828367E0220F331F441FBD
:1033D000551F6A95D1F783E0808309C0220F331F00
:1033E000441F551F828193810197938382832030EC
:1033F00080E0380780E0480780E4580778F320C071
:103400008F3F910579F4211531054105510519F4D6
:1034100084E08083089544FF03C081E0808310C06E
:1034200010820EC08F5790409383828383E0808305
:1034300087E0220F331F441F551F8A95D1F7506430
:1034400024833583468357830895FC01DB019081F3
:10345000923008F449C08C91823008F445C0943011
:1034600051F461818430B1F511962C91119730E0BF
:10347000261B310941C0843021F0923041F4823062
:10348000B1F111968C9111978823A1F12DC0618122
:10349000823001F111968C9111976817D9F422812D
:1034A000338112968D919C9113978217930794F014
:1034B00028173907BCF0248135814681578114963D
:1034C0008D919D910D90BC91A02D82179307A4071B
:1034D000B50718F4662341F00DC0281739074A07CD
:1034E0005B0728F4662331F021E030E005C020E0DE
:1034F00030E002C02FEF3FEFC901089597FB092E7E
:1035000007260AD077FD04D00CD006D000201AF48C
:10351000709561957F4F0895F6F7909581959F4F2F
:103520000895AA1BBB1B51E107C0AA1FBB1FA6170A
:10353000B70710F0A61BB70B881F991F5A95A9F75C
:1035400080959095BC01CD0108952F923F924F92A6
:103550005F926F927F928F929F92AF92BF92CF9223
:10356000DF92EF92FF920F931F93CF93DF93CDB72C
:10357000DEB7CA1BDB0B0FB6F894DEBF0FBECDBFA4
:1035800009942A88398848885F846E847D848C8475
:103590009B84AA84B984C884DF80EE80FD800C817E
:1035A0001B81AA81B981CE0FD11D0FB6F894DEBF61
:0C35B0000FBECDBFED010895F894FFCFD1
:1035BC00313233706173733A0057726F6E672070DB
:1035CC00617373776F726420007807EC07F60978E3
:1035DC0007EC07DE0B00007807F60EF609E008781A
:1035EC000710001000100008000800100020001048
:1035FC000010001000080008000C00640000000A15
:10360C00004423302A43393837423635344133327B
:0A361C003100000000000000000073
:00000001FF
